{
  "contractName": "Wallet",
  "abi": [
    {
      "anonymous": false,
      "inputs": [
        {
          "indexed": false,
          "internalType": "address",
          "name": "sender",
          "type": "address"
        },
        {
          "indexed": false,
          "internalType": "uint256",
          "name": "amount",
          "type": "uint256"
        }
      ],
      "name": "Update",
      "type": "event"
    },
    {
      "inputs": [
        {
          "internalType": "address",
          "name": "",
          "type": "address"
        }
      ],
      "name": "balance",
      "outputs": [
        {
          "internalType": "uint256",
          "name": "",
          "type": "uint256"
        }
      ],
      "stateMutability": "view",
      "type": "function",
      "constant": true
    },
    {
      "inputs": [
        {
          "internalType": "address",
          "name": "user",
          "type": "address"
        }
      ],
      "name": "initializeWallet",
      "outputs": [],
      "stateMutability": "nonpayable",
      "type": "function"
    },
    {
      "inputs": [
        {
          "internalType": "uint256",
          "name": "amount",
          "type": "uint256"
        },
        {
          "internalType": "address",
          "name": "receiver",
          "type": "address"
        }
      ],
      "name": "transfer",
      "outputs": [],
      "stateMutability": "payable",
      "type": "function",
      "payable": true
    },
    {
      "inputs": [
        {
          "internalType": "address",
          "name": "user",
          "type": "address"
        }
      ],
      "name": "getBalanceOf",
      "outputs": [
        {
          "internalType": "uint256",
          "name": "",
          "type": "uint256"
        }
      ],
      "stateMutability": "view",
      "type": "function",
      "constant": true
    }
  ],
  "bytecode": "0x608060405234801561001057600080fd5b50610747806100206000396000f3fe60806040526004361061003f5760003560e01c80632a840573146100445780639b96eece1461006d578063b7760c8f146100aa578063e3d670d7146100c6575b600080fd5b34801561005057600080fd5b5061006b60048036038101906100669190610408565b610103565b005b34801561007957600080fd5b50610094600480360381019061008f9190610408565b6101cc565b6040516100a191906105c2565b60405180910390f35b6100c460048036038101906100bf9190610431565b610214565b005b3480156100d257600080fd5b506100ed60048036038101906100e89190610408565b6103c6565b6040516100fa91906105c2565b60405180910390f35b60008060008373ffffffffffffffffffffffffffffffffffffffff1673ffffffffffffffffffffffffffffffffffffffff1681526020019081526020016000205414610184576040517f08c379a000000000000000000000000000000000000000000000000000000000815260040161017b906105a2565b60405180910390fd5b6103e86000808373ffffffffffffffffffffffffffffffffffffffff1673ffffffffffffffffffffffffffffffffffffffff1681526020019081526020016000208190555050565b60008060008373ffffffffffffffffffffffffffffffffffffffff1673ffffffffffffffffffffffffffffffffffffffff168152602001908152602001600020549050919050565b3360008060008373ffffffffffffffffffffffffffffffffffffffff1673ffffffffffffffffffffffffffffffffffffffff1681526020019081526020016000205411610296576040517f08c379a000000000000000000000000000000000000000000000000000000000815260040161028d90610582565b60405180910390fd5b826000803373ffffffffffffffffffffffffffffffffffffffff1673ffffffffffffffffffffffffffffffffffffffff168152602001908152602001600020541015610317576040517f08c379a000000000000000000000000000000000000000000000000000000000815260040161030e90610562565b60405180910390fd5b826000803373ffffffffffffffffffffffffffffffffffffffff1673ffffffffffffffffffffffffffffffffffffffff16815260200190815260200160002060008282546103659190610644565b92505081905550826000808473ffffffffffffffffffffffffffffffffffffffff1673ffffffffffffffffffffffffffffffffffffffff16815260200190815260200160002060008282546103ba91906105ee565b92505081905550505050565b60006020528060005260406000206000915090505481565b6000813590506103ed816106e3565b92915050565b600081359050610402816106fa565b92915050565b60006020828403121561041a57600080fd5b6000610428848285016103de565b91505092915050565b6000806040838503121561044457600080fd5b6000610452858286016103f3565b9250506020610463858286016103de565b9150509250929050565b600061047a6014836105dd565b91507f496e73756666696369656e742062616c616e63650000000000000000000000006000830152602082019050919050565b60006104ba6025836105dd565b91507f53656e6465722062616c616e6365206973206e6f7420696e697469616c697a6560008301527f64207965740000000000000000000000000000000000000000000000000000006020830152604082019050919050565b60006105206013836105dd565b91507f416c726561647920696e697469616c697a6564000000000000000000000000006000830152602082019050919050565b61055c816106aa565b82525050565b6000602082019050818103600083015261057b8161046d565b9050919050565b6000602082019050818103600083015261059b816104ad565b9050919050565b600060208201905081810360008301526105bb81610513565b9050919050565b60006020820190506105d76000830184610553565b92915050565b600082825260208201905092915050565b60006105f9826106aa565b9150610604836106aa565b9250827fffffffffffffffffffffffffffffffffffffffffffffffffffffffffffffffff03821115610639576106386106b4565b5b828201905092915050565b600061064f826106aa565b915061065a836106aa565b92508282101561066d5761066c6106b4565b5b828203905092915050565b60006106838261068a565b9050919050565b600073ffffffffffffffffffffffffffffffffffffffff82169050919050565b6000819050919050565b7f4e487b7100000000000000000000000000000000000000000000000000000000600052601160045260246000fd5b6106ec81610678565b81146106f757600080fd5b50565b610703816106aa565b811461070e57600080fd5b5056fea264697066735822122088ce468a9254191650bc3993d018f65ca1e292972c2472914e2c89c5a81e138364736f6c63430008000033",
  "immutableReferences": {},
  "source": "// SPDX-License-Identifier: MIT\r\npragma solidity ^0.8.0;\r\n\r\ncontract Wallet {\r\n    mapping(address => uint) public balance;\r\n\r\n    event Update(address sender,uint amount);\r\n    \r\n    function initializeWallet(address user) public {\r\n        require(balance[user] == 0, \"Already initialized\");\r\n        balance[user] = 1000;\r\n    }\r\n\r\n    modifier isInitialized(address sender) {\r\n        require(balance[sender] > 0, \"Sender balance is not initialized yet\");\r\n        _;\r\n    }\r\n\r\n    function transfer(uint amount, address receiver) public isInitialized(msg.sender) payable{\r\n        require(balance[msg.sender] >= amount, \"Insufficient balance\");\r\n        balance[msg.sender] -= amount;\r\n        balance[receiver] += amount;\r\n    }\r\n\r\n    function getBalanceOf(address user) public view returns (uint) {\r\n        return balance[user];\r\n    }\r\n}\r\n",
  "sourcePath": "C:\\Users\\rayan\\decentralized_wallet_app\\wallet_api\\contracts\\Wallet.sol",
  "compiler": {
    "name": "solc",
    "version": "0.8.0+commit.c7dfd78e.Emscripten.clang"
  },
  "schemaVersion": "3.4.16",
  "updatedAt": "2024-10-17T07:03:55.900Z",
  "networkType": "ethereum",
  "devdoc": {
    "kind": "dev",
    "methods": {},
    "version": 1
  },
  "userdoc": {
    "kind": "user",
    "methods": {},
    "version": 1
  }
}